:020000040800F2
:1000000000500020ED4E000851260008532600083D
:100010005526000857260008592600080000000051
:100020000000000000000000000000005B26000847
:100030005D260008000000005F2600086126000819
:10004000354F0008354F0008354F0008354F000880
:10005000354F0008354F0008354F0008354F000870
:10006000354F0008354F0008354F0008354F000860
:10007000354F0008354F0008354F0008354F000850
:10008000354F0008354F0008354F0008354F000840
:10009000354F0008354F0008354F0008354F000830
:1000A000354F0008354F0008354F0008354F000820
:1000B000354F0008354F0008354F0008354F000810
:1000C000354F0008354F0008354F0008354F000800
:1000D000354F0008354F0008354F0008354F0008F0
:1000E000354F0008354F0008354F0008000000006C
:1000F0000000000000000000000000000000000000
:0C01000000000000000000005FF808F1A3
:10011000034613F8012B002AFBD1181A0138704747
:1001200081F0004102E000BF83F0004330B54FEAA8
:1001300041044FEA430594EA050F08BF90EA020F15
:100140001FBF54EA000C55EA020C7FEA645C7FEAA8
:10015000655C00F0E2804FEA5454D4EB5555B8BFCB
:100160006D420CDD2C4480EA020281EA030382EA3C
:10017000000083EA010180EA020281EA0303362DCE
:1001800088BF30BD11F0004F4FEA01314FF4801CA1
:100190004CEA113102D0404261EB410113F0004FB3
:1001A0004FEA03334CEA133302D0524263EB43036A
:1001B00094EA050F00F0A780A4F10104D5F1200E08
:1001C0000DDB02FA0EFC22FA05F2801841F1000163
:1001D00003FA0EF2801843FA05F359410EE0A5F137
:1001E00020050EF1200E012A03FA0EFC28BF4CF068
:1001F000020C43FA05F3C01851EBE37101F000451E
:1002000007D54FF0000EDCF1000C7EEB00006EEB2A
:100210000101B1F5801F1BD3B1F5001F0CD34908B4
:100220005FEA30004FEA3C0C04F101044FEA44520B
:1002300012F5800F80F09A80BCF1004F08BF5FEA92
:10024000500C50F1000041EB045141EA050130BD72
:100250005FEA4C0C404141EB0101013C28BFB1F584
:10026000801FE9D291F0000F04BF01460020B1FACF
:1002700081F308BF2033A3F10B03B3F120020CDAA2
:100280000C3208DD02F1140CC2F10C0201FA0CF080
:1002900021FA02F10CE002F11402D8BFC2F1200CE5
:1002A00001FA02F120FA0CFCDCBF41EA0C0190409B
:1002B000E41AA2BF01EB0451294330BD6FEA0404E4
:1002C0001F3C1CDA0C340EDC04F11404C4F12002CF
:1002D00020FA04F001FA02F340EA030021FA04F3E1
:1002E00045EA030130BDC4F10C04C4F1200220FA38
:1002F00002F001FA04F340EA0300294630BD21FA76
:1003000004F0294630BD94F0000F83F4801306BF3B
:1003100081F480110134013D4EE77FEA645C18BF2F
:100320007FEA655C29D094EA050F08BF90EA020FC6
:1003300005D054EA000C04BF1946104630BD91EABE
:10034000030F1EBF0021002030BD5FEA545C05D1C1
:100350004000494128BF41F0004130BD14F5800400
:100360003CBF01F5801130BD01F0004545F0FE4174
:1003700041F470014FF0000030BD7FEA645C1ABFA9
:10038000194610467FEA655C1CBF0B46024650EAE0
:10039000013406BF52EA033591EA030F41F400210C
:1003A00030BD00BF90F0000F04BF0021704730B592
:1003B0004FF4806404F132044FF000054FF0000167
:1003C00050E700BF90F0000F04BF0021704730B528
:1003D0004FF4806404F1320410F0004548BF4042FD
:1003E0004FF000013EE700BF42004FEAE2014FEA52
:1003F00031014FEA02701FBF12F07F4393F07F4F2D
:1004000081F06051704732F07F4208BF704793F02F
:100410007F4F04BF41F40021704730B54FF4607442
:1004200001F0004521F000411CE700BF50EA010245
:1004300008BF704730B54FF000050AE050EA0102EE
:1004400008BF704730B511F0004502D5404261EB5E
:1004500041014FF4806404F132045FEA915C3FF49F
:10046000D8AE4FF003025FEADC0C18BF03325FEA3C
:10047000DC0C18BF033202EBDC02C2F1200300FAED
:1004800003FC20FA02F001FA03FE40EA0E0021FA12
:1004900002F11444BDE600BF70B54FF0FF0C4CF400
:1004A000E06C1CEA11541DBF1CEA135594EA0C0FB2
:1004B00095EA0C0F00F0DEF82C4481EA030621EAED
:1004C0004C5123EA4C5350EA013518BF52EA033528
:1004D00041F4801143F4801338D0A0FB02CE4FF0DA
:1004E0000005E1FB02E506F00042E0FB03E54FF00A
:1004F0000006E1FB03569CF0000F18BF4EF0010E02
:10050000A4F1FF04B6F5007F64F5407404D25FEAFD
:100510004E0E6D4146EB060642EAC62141EA5551B0
:100520004FEAC52040EA5E504FEACE2EB4F1FD0CF2
:1005300088BFBCF5E06F1ED8BEF1004F08BF5FEA70
:10054000500E50F1000041EB045170BD06F0004622
:1005500046EA010140EA020081EA0301B4EB5C04CF
:10056000C2BFD4EB0C0541EA045170BD41F48011C7
:100570004FF0000E013C00F3AB8014F1360FDEBFEC
:10058000002001F0004170BDC4F10004203C35DAC8
:100590000C341BDC04F11404C4F1200500FA05F34B
:1005A00020FA04F001FA05F240EA020001F00042EC
:1005B00021F0004110EBD37021FA04F642EB060162
:1005C0005EEA430E08BF20EAD37070BDC4F10C048C
:1005D000C4F1200500FA04F320FA05F001FA04F250
:1005E00040EA020001F0004110EBD37041F100013C
:1005F0005EEA430E08BF20EAD37070BDC4F1200547
:1006000000FA05F24EEA020E20FA04F301FA05F2AE
:1006100043EA020321FA04F001F0004121FA04F256
:1006200020EA020000EBD3705EEA430E08BF20EA26
:10063000D37070BD94F0000F0FD101F00046400060
:1006400041EB010111F4801F08BF013CF7D041EAE2
:10065000060195F0000F18BF704703F000465200E6
:1006600043EB030313F4801F08BF013DF7D043EAB7
:100670000603704794EA0C0F0CEA135518BF95EA6D
:100680000C0F0CD050EA410618BF52EA4306D1D1F4
:1006900081EA030101F000414FF0000070BD50EA13
:1006A000410606BF1046194652EA430619D094EA9D
:1006B0000C0F02D150EA013613D195EA0C0F05D187
:1006C00052EA03361CBF104619460AD181EA0301DB
:1006D00001F0004141F0FE4141F470014FF0000093
:1006E00070BD41F0FE4141F4780170BD70B54FF02E
:1006F000FF0C4CF4E06C1CEA11541DBF1CEA1355AE
:1007000094EA0C0F95EA0C0F00F0A7F8A4EB05048F
:1007100081EA030E52EA03354FEA013100F0888086
:100720004FEA03334FF0805545EA131343EA12634F
:100730004FEA022245EA111545EA10654FEA002604
:100740000EF000419D4208BF964244F1FD0404F5BD
:10075000407402D25B084FEA3202B61A65EB030519
:100760005B084FEA32024FF480104FF4002CB6EBD6
:10077000020E75EB030E22BFB61A754640EA0C0056
:100780005B084FEA3202B6EB020E75EB030E22BF96
:10079000B61A754640EA5C005B084FEA3202B6EBD7
:1007A000020E75EB030E22BFB61A754640EA9C0096
:1007B0005B084FEA3202B6EB020E75EB030E22BF66
:1007C000B61A754640EADC0055EA060E18D04FEA24
:1007D000051545EA16754FEA06164FEAC30343EAC4
:1007E00052734FEAC2025FEA1C1CC0D111F4801F91
:1007F0000BD141EA00014FF000004FF0004CB6E78A
:1008000011F4801F04BF01430020B4F1FD0C88BF28
:10081000BCF5E06F3FF6AFAEB5EB030C04BFB6EB33
:10082000020C5FEA500C50F1000041EB045170BD26
:100830000EF0004E4EEA113114EB5C04C2BFD4EB53
:100840000C0541EA045170BD41F480114FF0000ED7
:10085000013C90E645EA060E8DE60CEA135594EA53
:100860000C0F08BF95EA0C0F3FF43BAF94EA0C0F56
:100870000AD150EA01347FF434AF95EA0C0F7FF4CB
:1008800025AF104619462CE795EA0C0F06D152EA1F
:1008900003353FF4FDAE1046194622E750EA410603
:1008A00018BF52EA43067FF4C5AE50EA41047FF414
:1008B0000DAF52EA43057FF4EBAE12E74FF0FF3C79
:1008C00006E000BF4FF0010C02E000BF4FF0010C4A
:1008D0004DF804CD4FEA410C7FEA6C5C4FEA430CC3
:1008E00018BF7FEA6C5C1BD001B050EA410C0CBF12
:1008F00052EA430C91EA030F02BF90EA020F002074
:10090000704710F1000F91EA030F58BF994208BFDA
:1009100090422CBFD8176FEAE37040F00100704797
:100920004FEA410C7FEA6C5C02D150EA013C07D1EE
:100930004FEA430C7FEA6C5CD6D152EA033CD3D039
:100940005DF8040B704700BF8446104662468C4633
:100950001946634600E000BF01B5FFF7B7FF002866
:1009600048BF10F1000F01BD4DF808EDFFF7F4FF8F
:100970000CBF012000205DF808FB00BF4DF808ED1A
:10098000FFF7EAFF34BF012000205DF808FB00BF3D
:100990004DF808EDFFF7E0FF94BF012000205DF85F
:1009A00008FB00BF4DF808EDFFF7CEFF94BF012014
:1009B00000205DF808FB00BF4DF808EDFFF7C4FF0D
:1009C00034BF012000205DF808FB00BF4FEA410C56
:1009D0007FEA6C5C02D150EA013C0AD14FEA430C39
:1009E0007FEA6C5C02D152EA033C02D14FF0000076
:1009F00070474FF0010070474FEA410212F50012B4
:100A000015D211D56FF47873B3EB625212D94FEA55
:100A1000C12343F0004343EA505311F0004F23FA3F
:100A200002F018BF404270474FF00000704750EA94
:100A3000013005D111F0004008BF6FF00040704751
:100A40004FF00000704700BF0348044B834202D0C0
:100A5000034B03B1184770472C0200202C020020E2
:100A6000000000000548064B1B1AD90F01EBA3013B
:100A7000491002D0034B03B1184770472C020020E5
:100A80002C0200200000000010B5064C237843B96A
:100A9000FFF7DAFF044B13B10448AFF300800123E2
:100AA000237010BD3002002000000000E07C000830
:100AB00008B5054B1BB105490548AFF30080BDE8FB
:100AC0000840FFF7CFBF00BF000000003402002045
:100AD000E07C00082DE9F04788B004AD00240494C0
:100AE0000594069407943D4B9A6942F010029A616E
:100AF0009A6902F010020092009A9A6942F020026C
:100B00009A619A6902F020020192019A9A6942F070
:100B100004029A619A6902F004020292029A9A69A6
:100B200042F008029A619B6903F008030393039B58
:100B3000DFF8ACA022464FF40051504603F0ABFE64
:100B4000DFF8A09022466021484603F0A4FE264F1D
:100B5000224644F2C131384603F09DFE4FF4005363
:100B600004930126059606944FF00208CDF81C80E8
:100B70002946504603F07EFD4FF44043049305940C
:100B800006962946504603F075FD602304930596AA
:100B90000694CDF81C802946484603F06BFD80235F
:100BA0000493059406962946484603F063FD44F2F3
:100BB000C133049305960694CDF81C802946384627
:100BC00003F058FD4BF21003049305940696294652
:100BD000384603F04FFD08B0BDE8F0870010024032
:100BE0000010014000080140000C014000221346A3
:100BF00007E010F802C0634403EB832383EA9313F6
:100C000001328A42F5D303EBC30383EAD32000EB1E
:100C1000C030704770B5ADF5027D4FF0FF33032251
:100C2000A0211E4802F098FD0028F6D14FF0FF33B6
:100C300002934FF4FC75019504AC009410234FF41B
:100C40008062A021154802F0FDFBBDF81060002372
:100C5000ADF8103029462046FFF7C8FF80B2B042F9
:100C600007D12A4621460E4804F0FEFE0DF5027D0E
:100C700070BD0021084601F0C8FE0A4801F01EFFC1
:100C80000021012001F0C1FE074801F017FF4FF4D9
:100C9000FA6003F09BF801F0B3FEE7E76407002079
:100CA000A0040020F87C0008047D00082DE9F04134
:100CB00084B0194F00233B804FF4FC713846FFF796
:100CC00095FF38804FF480644FF4FC751BE02026BC
:100CD0004FF0FF330322A021104802F03DFD002811
:100CE000F6D11FFA86F84FF0FF330293CDF8048057
:100CF000009710232246A021084802F0E7FAAD1B16
:100D000037444444A4B21DB1202DE0D82E46DFE77D
:100D100004B0BDE8F08100BFA004002064070020FB
:100D200070B588B04FF0FF330322A0211D4802F0B8
:100D300013FD0028F6D14FF0FF33029310240194E5
:100D40000DEB0405009523460022A021154802F072
:100D500079FBBDF810600023ADF81030214628461D
:100D6000FFF744FF80B2B04207D10F4C08AB13E944
:100D70000F0084E80F0008B070BD0021084601F0A4
:100D800044FE0A4801F09AFE0021012001F03DFED8
:100D9000074801F093FE4FF4FA6003F017F801F0F2
:100DA0002FFEE8E76407002044000020107D0008C3
:100DB000047D000810B584B00F4C0023238010215F
:100DC0002046FFF713FF20804FF0FF330322A021BE
:100DD0000A4802F0C1FC0028F6D14FF0FF3302931D
:100DE00010230193044A00920022A021034802F03C
:100DF0006DFA04B010BD00BF44000020640700205D
:100E00000F4A536818445060092807DC13460A2229
:100E10005A6001229A706D229A607047084B002236
:100E20009A701E2801DD1E225A6005494A68322345
:100E300002FB03334EF6602292FBF3F38B607047A4
:100E40004400002030B589B004460846154601AA82
:100E500005A901F009FC094B1B783BB101AB2A46FF
:100E60000021204601F033FD09B030BD05A9002066
:100E700001F010FD014B01221A70EFE790020020F3
:100E800008B502460121024803F005FD08BD00BF78
:100E9000000C014038B50C4619B9324B1B78002BB9
:100EA00048D1314B1D7815B100EB800040002F4B2D
:100EB0001B682F4901EB03118A684FF0640C0CFB8F
:100EC00000228A6075B168B12A4981FB0201D217FC
:100ED000C2EBA1124FF47A7101FB02F2244901EB3B
:100EE00003118A6022491A0101EB031080688A58B5
:100EF000904220DA01EB03118A601F4A1278012A1E
:100F000024D01B4A02EB03139A681C4B13441C4A5F
:100F100013602CB91A4B1A681A4B1B689A4205D0F9
:100F20000122174B19680020FFF78CFF144B1A6839
:100F3000144B1A6038BD0E4A02EB031252689042FD
:100F4000DBDD0B4901EB03118A60D6E7084A02EBAF
:100F500003139A680C4B1B681A44084B1344084A45
:100F60001360D6E7A2060020A10600204000002062
:100F700000000020D34D6210A0060020564D8900CD
:100F8000540000208C0200209C06002030B587B061
:100F90001A4B1A681A4B03EB02139868194B83FB20
:100FA000003CC317C3EBAC41174A02FB1101174CBD
:100FB00084FB0052C3EBA2124FF47A7505FB1202B8
:100FC00002AD134880FB02E0D217C2EB601201921F
:100FD00084FB0124C917C1EBA4110091C3EBAC43FE
:100FE0000C4A1021284604F003FC0021084601F0B9
:100FF0000CFD284601F062FD07B030BD4000002026
:101000000000002083DE1B4340420F00D34D6210DE
:101010001F85EB511C7D000808B54FF48051034833
:1010200003F032FCB0FA80F0400908BD000C01402A
:1010300008B54FF40051034803F026FCB0FA80F0E5
:10104000400908BD000C0140014B01221A70704795
:101050009D040020014B00221A7070479D0400205F
:1010600008B5084B1B782BB1074B1B684FF4007277
:101070001A6408BD01224FF48041044803F00BFCC0
:10108000F2E700BF9D040020A4060020000C0140F0
:1010900008B5074B1B7823B1064B1B6800221A6466
:1010A00008BD00224FF48041034803F0F4FBF3E74E
:1010B0009D040020A4060020000C014010B501286A
:1010C0000BD00C4C00224021204603F0E4FB01220F
:1010D0002021204603F0DFFB10BD064C01224021F9
:1010E000204603F0D8FB00222021204603F0D3FB4A
:1010F000F2E700BF0008014038B50446114D012851
:1011000014BF002201224FF40071284603F0C3FBF4
:10111000022C14BF002201224FF48071284603F0F4
:10112000BAFB032C14BF002201224021284603F001
:10113000B2FB042C14BF002201228021284603F0B8
:10114000AAFB38BD000C014038B5134A13680344AC
:10115000136002E00433104A13600F4B1B68002B2E
:10116000F8DB03F003030C4D2B600C4C04EB031372
:10117000587BFFF7C1FF2B6804EB0314207BFFF7BC
:101180009DFF00210846FFF785FE012001F038FB96
:10119000FFF7FCFE38BD00BF40000020000000202B
:1011A00008B5164B1B781BBB154B1A68154B03EB88
:1011B00002139968144B1B78022B1AD0114B03EBC6
:1011C00002139A7B0220FFF73DFE042001F018FB7A
:1011D0000020FFF791FF0120FFF752FE00210120C0
:1011E00001F013FC094801F069FC044B01221A705C
:1011F00008BD074B1B681944E0E700BF9E040020B0
:101200004000002000000020A0060020307D0008E3
:101210009C06002038B5144603F036FB10B10125BA
:10122000284638BD054602F0CBFD2368C31AC82BFB
:1012300001D92060F4E70225F2E7000008B5034A6F
:101240004FF400410248FFF7E5FF08BD7802002097
:101250000010014008B5034A4FF480410248FFF7EF
:10126000D9FF08BD740200200010014008B5034AF0
:101270004FF400410248FFF7CDFF08BD7002002087
:10128000000C014008B5034A10210348FFF7C2FFD4
:1012900008BD00BF6C020020000C014008B5034AE5
:1012A00080210348FFF7B6FF08BD00BF6802002099
:1012B00000080140014B00221A7070479C04002076
:1012C00008B548B1094B1B7803B108BDFFF7C8FE4C
:1012D000064B01221A70F8E7044B1B78002BF4D060
:1012E000FFF7D6FE014B00221A70EEE79C040020A7
:1012F000014B00221A60704798040020014B1868C7
:10130000704700BF98040020024B1868C0F5FA70BF
:10131000704700BF9804002010B50446FFF7F4FFA3
:1013200078B1202C0ED02F2C0CD0202C0FD02F2CAD
:1013300015D0202C20D0144A13681449CC54013302
:10134000136010BD104B1B68002BEED1F9E70E4B5C
:101350001B68013B0D4AD35C202BE8D1F1E70A4B17
:101360001B68013B094AD25C2F2AEAD0202AE0D12F
:10137000064A2F21D154E4E7034B1B68013B034A83
:10138000D35C2F2BD7D1DCE798040020A4020020E7
:1013900070B505460E4602F013FD0446414B1B781E
:1013A0001BB1414A1268824246DD43B93E4A116888
:1013B000611A3E4A926802EB8202914242DC3BB9DA
:1013C000394B1B68E31A394A9268B3EB420F3DDC94
:1013D000374B1B7893B91DB1364B1B78022B39D094
:1013E0001EB1344B1B78012B38D0334B1B68A34202
:1013F00004DA002D36D02E4B01221A702F4B1B68B9
:10140000A34218DA2A4B1B78ABB1012B30D0022B48
:101410003BD0274B1978274A117000221A70234BB2
:101420009B68214A12681344244A13601D4B012211
:101430001A70FFF715FE70BDFFF72AFE194B002248
:101440001A70C5E72F20FFF767FFC1E72020FFF7DD
:1014500063FFBDE7164B01221A70CFE7144B02223F
:101460001A70CBE7002EC9D0114B02221A70C5E7C3
:101470002E20FFF751FF0D4B9B6819190A4A116086
:1014800004EB43030C4A1360C3E72D20FFF744FF2E
:10149000064B9B6803EB43032344034A1360064A4D
:1014A0001360B6E7640200206002002044000020C0
:1014B00098060020990600205C02002058020020B7
:1014C0000068406A90FBF3F002FB00F3013BC3F3BA
:1014D0004E035A42C3F5FF437F33B3F5804F00DD1F
:1014E000531E0868984207D0C01A0B6000F1090328
:1014F000122B02D9002070470020704710B584B02D
:10150000144B9B787BB10021084601F07EFA12480B
:1015100001F0D4FA0021012001F077FA0F4801F020
:10152000CDFA04B010BD0B4B5B680D4A1021684624
:1015300004F05EF90021084601F067FA684601F000
:10154000BDFA0021012001F060FA064801F0B6FA68
:10155000E7E700BF440000203C7D0008487D00080C
:10156000547D0008607D000808B50021084601F0A0
:101570004CFA054801F0A2FA0021012001F045FAD9
:10158000024801F09BFA08BD6C7D0008787D0008D8
:1015900008B50021084601F038FA054801F08EFA36
:1015A0000021012001F031FA024801F087FA08BD5C
:1015B000847D0008787D000808B50021084601F008
:1015C00024FA054801F07AFA0021012001F01DFA01
:1015D000024801F073FA08BD907D0008787D00088C
:1015E00008B5FFF72BFE08B9012008BDFFF732FE52
:1015F00008B90120F9E7FFF739FE08B90120F4E73F
:10160000FFF740FE08B90120EFE7FFF747FE08B9F2
:101610000120EAE7FFF700FD08B10120E5E7FFF749
:1016200007FD0028E1D00120DFE70000044B002285
:101630001A60044B00200021C3E90001704700BF7D
:10164000A0020020980200202DE9F04182B0FFF7AF
:101650004FFEFFF759FE074603463B4A08216846FE
:1016600004F0C6F80521002001F0CFF9684601F02A
:1016700025FA0026B0461CE002F0A2FB801B334B8B
:101680009B68B0EBC30F26D8B8F1000F03D02946F2
:101690002046FFF77DFEFFF7E9FDF0B1FFF7FEFD05
:1016A00088B3FFF731FE044687423DD1052002F0A2
:1016B0008DFBFFF7B1FC0446FFF7BAFC05460CB9F9
:1016C0000028D9D002F07CFB0646B8F1000FDED12D
:1016D0004FF00108DBE7A846DDE7FFF70FFE1C4BE4
:1016E000588082B21B49181D04F0BEF9184B5B8864
:1016F0003BB1591E164A0A441279202A0DD02F2ACE
:101700000ED0FFF7D3FA0521002001F07EF9124830
:1017100001F0D4F902B0BDE8F0810D4A5180E5E74F
:10172000013B0B4A5380E1E70346074A082168461C
:1017300004F05EF80521002001F067F9684601F029
:10174000BDF92746B2E700BF9C7D00084400002099
:10175000A0040020A4020020A47D0008FEE70000F1
:1017600000B585B00190012302930323039301A9DF
:10177000044803F0BDF910B905B05DF804FBFFF7AC
:10178000EDFF00BFB807002010B5FFF7E9FF0C4CD4
:101790004FF0FF31204603F0EFF8204603F0A4F9A4
:1017A000FEF700FE04A3D3E90023FEF775FE002236
:1017B000044BFEF771FE10BD6666666666660A40FB
:1017C000B80700200000303FF0B587B0054678B17B
:1017D0000021012001F019F9454B1B78002B36D16F
:1017E000444B1B78002B36D1434B1B78002B36D152
:1017F00002F0E6FA04462DB9404B1B68C31AB3F554
:101800007A7F22D90220FFF7BFFF00223C4BFEF770
:1018100043FE06460F46ADB900223A4BFEF73CFEAA
:10182000FFF7EAF805460022364B3749D1E90001B7
:10183000FEF732FEFFF7E0F82D1A002DB8BF6D421B
:101840000E2D02DDFFF7E8FB20B307B0F0BD2F48F7
:1018500001F034F9F9E72E4801F030F9F5E7012BF2
:1018600014D02C4B2C4A1268002A11DB2B4902ACF5
:10187000002AB8BF524201920091294A1021204605
:1018800003F0B6FF204601F019F9DEE7254BE9E742
:101890002549ECE7FFF7CCFB0028D6D112A3D3E90A
:1018A000002330463946FFF769F898B1CDE9006763
:1018B0001E4A102102A803F09BFF0021012001F025
:1018C000A4F802A801F0FAF80F4BC3E900670B4B2C
:1018D0001C60BAE7CDE90067154A102102A803F0A1
:1018E00087FFEAE7AFF300806666666666E6234038
:1018F000A1060020A2060020A006002088020020E9
:1019000000001B400000594080020020B87D000804
:10191000C47D0008AC7D00089C060020B47D000852
:10192000D07D0008A87D0008B07D0008DC7D00089F
:10193000E87D000808B50E4B1B7803B908BD0020F0
:10194000FFF79EFA0B4B1A680B4B03EB0213587B05
:10195000FFF7D2FB01210020FFF79CFA012000F0E5
:101960004FFF0120FFF730FF014B00221A70E5E71F
:101970009E040020400000200000002070B590B0C0
:1019800000224FF480413B4802F085FFFFF780FBC7
:1019900001224FF40051384802F07DFF18213748EA
:1019A00002F07EF91821364802F07AF9354803F042
:1019B0007FF9354C0C21204602F05AF923680024A7
:1019C0001C6401F041F82146204601F01EF82F4822
:1019D00001F074F82146012001F017F82C4801F0BD
:1019E0006DF84FF47A7002F0F1F901F009F8214630
:1019F000204601F00AF8274801F060F80124264645
:101A000001E00134A4B27F2C19D8610089B20A2305
:101A10000122214801F0A0FE0028F2D123461F4AEE
:101A20004021684603F0E4FE684601F047F8002EC6
:101A3000E7D00021012000F0E8FF0026E1E74FF4A5
:101A40007A7002F0C3F900F0DBFFFFF769F9FFF7E6
:101A5000E1F80120FFF7B8FE114800F0A3FE0020D6
:101A6000FFF772FB0F4B01221A70FFF763FF10B0F4
:101A700070BD00BF000C0140001001402407002091
:101A8000E4060020B8070020A4060020F47D00082A
:101A9000007E00080C7E000864070020147E000809
:101AA000CEF5FFFF9E040020F0B585B002F088F966
:101AB0003B4B1B68C31A632B01D805B0F0BD04462D
:101AC0000020FFF761FE06460F4633A3D3E900234B
:101AD000FEF75EFF0028F0D1314B1C600120FFF7BC
:101AE00053FE04460D462CA3D3E90023FEF750FF16
:101AF00008B10024002532463B4620462946FEF721
:101B00005BFF002838D132463B4620462946FEF787
:101B1000EDFD06460F460022224BFEF707FB04466A
:101B20000D4632463B4600201E49FEF7FDFA0246AE
:101B30000B4620462946FEF7D9FD04460D462246AF
:101B40002B461949D1E90001FEF7EEFAFEF754FFE2
:101B50000028B2D00521012000F057FF0022134BCE
:101B600020462946FEF71EFF48B1114800F0A6FFA7
:101B70000D4BC3E90045A0E700240E4DDFE702AEA0
:101B8000CDE900450C4A0821304603F031FE3046CD
:101B900000F094FFECE700BF9A9999999999B93FA1
:101BA000A00200200000F03F980200200000244026
:101BB0001C7E000800003940207E00082DE9F04F0F
:101BC00085B08946414B5E88834628B94FF0000AAC
:101BD00057465546D04620E033463D4A10216846D8
:101BE00003F006FE0521002000F00FFF684600F01C
:101BF00065FFEBE7374B9D6805EB450500EB4505B9
:101C00000127A54231DDFFF7EBFC00284DD1B9F1EA
:101C1000000F47D1052002F0D9F8002E45D002F080
:101C2000CFF80446002FECD18045ECDC274B534421
:101C30001B792F2BDED0202B08D02D2B0CD0FFF7BB
:101C40000FFA244B9D6825440127DAE7214B9D6854
:101C500000EB45050127D4E7FFF702FA1D4B9D680D
:101C600005EB450525440127CBE7FFF711FA013EB7
:101C70000AF1010A174B9B6803EB0408BBF1000F44
:101C800001D15F46BFE73346114A1021684603F091
:101C9000AFFD0521002000F0B8FE684600F00EFF01
:101CA0000027B0E7FFF700FFB4E7FFF7F1F9BBF15A
:101CB000000F02D105B0BDE8F08F0521002000F033
:101CC000A4FE054800F0FAFEF4E700BFA0040020DF
:101CD0009C7D000844000020A47D00082DE9F0410F
:101CE00082B0804600230193FFF7AEF9654B1B7B62
:101CF00043B1012B0FD0022B12D0FFF75DFC002661
:101D0000374640E001231A4601A95F48FFF7D8FB98
:101D1000FFF7F4FBF3E7FFF79DF9FFF725FCEEE78C
:101D2000FFF736FCEBE7FFF777F90446FFF780F99A
:101D300005460CB9002841D002F042F8064627B902
:101D4000504B9F78002F36D101274E4B9B78002BAC
:101D50003FD02046FFF7B4FA01231A4601A94A48AA
:101D6000FFF7AEFB044600283AD1FFF767FA0028D8
:101D70003FD1FFF76FF9FFF7F7FB424B01221A73D0
:101D8000052002F023F83F4B1B7B002BCBD0012B0F
:101D90003FD0022B54D0FFF751FA002864D1012321
:101DA0001A4601A93848FFF78BFBFFF7A7FB354B15
:101DB00000221A73E4E7FFF77DFAC6E702F000F8A5
:101DC000801B304B9B68B0EBC30F07D8002FC3D0EC
:101DD000BBE729462046FFF7DBFABDE72F46BBE706
:101DE000FFF756F92046FFF70BF8FFF787FB0027B0
:101DF000BBE7FFF753FA0028C2D1FEF7DBFFFFF77E
:101E0000C5F80120FFF7E0FCFFF724F902B0BDE8B8
:101E1000F081FFF713FA38B9FFF716F9FFF7B8FBAF
:101E2000184B02221A73ABE7FFF720FA20B1FFF735
:101E300035FA0028A4D1E0E7012388F80030DCE778
:101E4000FFF7FCF928B9FFF7B7FB0E4B03221A7313
:101E500096E7FFF70BFA10B9FFF7F6FB90E7FFF7ED
:101E60001DFA00288CD1C8E7FFF700FA20B900213D
:101E70000120FFF7A3FE83E7FFF710FA00287FF4A5
:101E80007FAFBAE7440000202407002030B583B0BC
:101E9000FFF7C2F80446FFF7CBF8054604B918B3BC
:101EA00001F08EFF944B1860944B1B788BB1934BD1
:101EB0001B78002B3BD0924B9B78002B32D02046D6
:101EC000FFF7FEF9FFF7F0FD052001F07FFF03B0FB
:101ED00030BDFFF765F9FFF7A9FB894B9B78002B15
:101EE000E5D0FFF7E7F9E2E701F06AFF824B1B68F4
:101EF000C01A834B9B68C3EB03139842D7D97F4B1F
:101F00001B78002BD3D0FFF715FD01231A467D491E
:101F10007D48FFF7D5FA01231A467C497C48FFF734
:101F2000CFFAC4E729462046FFF732FACAE7012371
:101F30001A4674497448FFF7C3FAD0B9754B1B7839
:101F40002BB1754B1B7813B9744B1B78BBB1FFF7E2
:101F50008DF9002847D1704B1B78002B43D16F4A75
:101F6000137883F00103137083B30120FFF72CFC77
:101F70003CE00021FEF78EFFFFF708F8DEE70123C3
:101F80001A4662496248FFF79BFA02460028DED0F3
:101F900063490B68322000FB02330B60614A9342B5
:101FA00008DA0A605B4B1B78012B0AD00120FFF78F
:101FB0000BFCCCE740F6B8329342F3DD584B1A6085
:101FC000F0E700210846FEF765FFEFE701231A4618
:101FD0004C494D48FFF774FA01231A464B494C48C7
:101FE000FFF76EFAC1E74D4B1B7893B1494B1B7855
:101FF000002B7FF469AF494B1B78002B7FF464AF53
:10200000454B1B78002B7FF45FAF0020FFF7DCFB14
:102010005AE7FFF713F918B90120FFF795F8E5E73C
:10202000FFF718F9B0B93C4A137883F00103137035
:102030001BB10120FFF7C8FBD8E701231A4631493D
:102040003148FFF73DFA01231A4630493048FFF77F
:1020500037FAEEE7FFF716F9F8B92E4B1B7893B96C
:102060002C4B01221A7000202D4B18600146FEF700
:1020700011FF01231A4625492548FFF721FA0120BF
:10208000FFF7A2FBB2E7012B03D0224B00221A700C
:10209000E9E7204B02221A70E5E7FFF7FFF8002876
:1020A000A4D100238DF807300DF10700FFF716FECD
:1020B00001231A4613491448FFF702FA01231A466E
:1020C00012491348FFF7FCF99DF80730002B8DD01B
:1020D000FFF766F8FFF7AAFA094B9B7843B901218D
:1020E0000020FFF76BFD01F06BFE034B1860EEE67E
:1020F000FFF7E0F8F3E700BF540200209E04002041
:102100004400002050020020240700204C02002040
:10211000E4060020A0060020A1060020A206002060
:102120009C06002048F4FFFF00B585B00023019312
:10213000029303931048114A026083600122C26037
:1021400043614FF46021C1614360026102F04AFEC5
:1021500068B900230193012302930723039301A984
:10216000054802F0C5FC20B905B05DF804FBFFF797
:10217000F5FAFFF7F3FA00BFB8070020002401408A
:1021800008B50A480A4B03600A4B4360002383608A
:10219000C3604FF48042026143618361C3610362A3
:1021A00000F01AFF00B908BDFFF7D8FA6407002055
:1021B00000580040801A060010B58CB003AC2422F1
:1021C0000021204603F00EFC0023019302931048E7
:1021D000104A0260436083604FF6FF72C260036181
:1021E000436183610123039305930993214601F021
:1021F00045FC48B900230193029301A9044801F06A
:1022000071FD18B90CB010BDFFF7A8FAFFF7A6FAD8
:1022100024070020002C014010B58CB003AC242210
:102220000021204603F0DEFB0023019302931048B7
:102230004FF080420260436083604FF6FF72C260DD
:10224000036183610123039305930993214601F000
:1022500015FC48B900230193029301A9044801F039
:1022600041FD18B90CB010BDFFF778FAFFF776FA08
:10227000E406002000B58BB0002308930993019376
:102280000293039304930593069307931648174A02
:1022900002604D22426083604FF48062C26003613D
:1022A000836101F0D1FBC8B900230893099308A901
:1022B0000D4801F017FD98B96023019300230293A4
:1022C000039305930C2201A9074801F055FC48B976
:1022D000054800F097F90BB05DF804FBFFF73EFAF4
:1022E000FFF73CFAFFF73AFAA4060020000400408A
:1022F00010B594B00AAC28220021204603F072FBEE
:10230000002305930693079308930993019302937F
:102310000393049301220A924FF480330B930E929D
:102320000222119212934FF4A0131393204601F04E
:1023300077FDC0B90F23059302210691002307936F
:102340004FF480620892099305A801F091FF60B9EB
:10235000022301934FF48043039301A802F07CF819
:1023600028B914B010BDFFF7F9F9FFF7F7F9FFF737
:10237000F5F908B501F006FDFFF7BAFFFEF7AAFB75
:10238000FFF7D2FEFFF7FCFEFFF716FFFFF744FF53
:10239000FFF770FFFFF7F2FAFFF778FDFCE70000A8
:1023A0000F4B1A6842F001021A6059680D4A0A4040
:1023B0005A601A6822F0847222F480321A601A6815
:1023C00022F480221A605A6822F4FE025A604FF406
:1023D0001F029A60044B4FF000629A60704700BF82
:1023E000001002400000FFF800ED00E082B00E4B4C
:1023F0009A6942F001029A619A6902F00102009220
:10240000009ADA6942F08052DA61DB6903F08053A6
:102410000193019B054A536823F0E06343F0007386
:10242000536002B0704700BF00100240000001403E
:1024300000B587B0002302930393049305930268C9
:10244000114B9A4202D007B05DF804FB03F56C43D0
:102450009A6942F400729A619A6902F400720092D9
:10246000009A9A6942F004029A619B6903F004039E
:102470000193019B072302930323039302A90348BB
:1024800002F0F8F8DFE700BF002401400008014037
:1024900010B586B00023029303930493059302685A
:1024A000114B9A4201D006B010BD104CA36943F005
:1024B0000803A361A36903F008030093009B4FF492
:1024C00040630293122303930323059302A9084850
:1024D00002F0D0F8E36943F48003E361E36903F4B5
:1024E00080030193019BDEE700580040001002408A
:1024F000000C014030B58BB000230693079308937E
:10250000099303682F4A934204D0B3F1804F1ED041
:102510000BB030BD2C4B9A6942F400629A619A6903
:1025200002F400620192019A9A6942F004029A61EF
:102530009B6903F004030293029B4FF440730693DC
:102540000123089306A9214802F094F8E0E703F577
:102550000433DA6942F00102DA61DA6902F0010259
:102560000392039A9A6942F004029A619A6902F00E
:1025700004020492049A9A6942F008029A619B69E3
:1025800003F008030593059B4FF4004306930125D0
:10259000089506AC21460D4802F06CF80823069316
:1025A0000023079308952146094802F063F8094A79
:1025B000536823F4407343F0E06343F48073536043
:1025C000A6E700BF002C01400010024000080140B7
:1025D000000C0140000001400268094B9A4200D003
:1025E000704782B003F50333DA6942F00202DA6120
:1025F000DB6903F002030193019B02B0704700BF47
:102600000004004000B587B00023029303930493B5
:10261000059302680C4B9A4202D007B05DF804FBA8
:1026200003F503339A6942F008029A619B6903F04B
:1026300008030193019B022302930393059302A9CC
:10264000024802F017F8E8E700040040000C0140DF
:102650007047FEE7FEE7FEE7FEE77047704770470A
:1026600008B501F0A1FB08BDF0B4B0F5FA5F35DBA9
:102670002F4B984234DD2E48002313732D4C84FBDE
:102680000034C317C3EBA4432B4C246804FB03F3AF
:102690002A4C84FB0354DB17A3EB64131844284B28
:1026A000984224DC274D95FBF0F50415C0F3130385
:1026B00003B10134234B93FBF0F600FB163393FB7D
:1026C000F4F390FBF4F40127002024260E60486008
:1026D0008F60156053609460F0BC70474FF4FA50FF
:1026E000194B9842C8DC800106231373C6E7174BC9
:1026F000984204DC164B984217DD062500E00425BD
:1027000005FB00F0134B83FB0043C617C6EBE356F3
:10271000114B03FB1600114B83FB0043C017C0EBAA
:10272000A300012400230E4FD0E70825E8E700BFEF
:102730000068890983DE1B43E80700201F85EB51F1
:102740003FF6D30400E9A4353F420F007FD1F008E3
:10275000FFE0F505893BE65540787D01ABAAAA2A42
:1027600002E50F0010B586B004468DF817104FF043
:10277000FF330322C0210A4800F0EEFF0028F6D103
:102780004FF0FF330293012301930DF117020092E2
:102790002246C021024800F099FD06B010BD00BFDE
:1027A0006407002008B5154B1860FF210320FFF7D0
:1027B000D9FF80211020FFF7D5FF80211120FFF7DE
:1027C000D1FF80211220FFF7CDFF80211320FFF7DA
:1027D000C9FF80211420FFF7C5FF80211520FFF7D6
:1027E000C1FF80211620FFF7BDFF80211720FFF7D2
:1027F000B9FFC021B720FFF7B5FF08BDE8070020EB
:1028000008B5C143C9B20320FFF7ACFF08BDF8B556
:1028100005460F4616461C46C3F30721FFF7A2FFE5
:10282000681CE1B2C0B2FFF79DFFC7F301419DF8FC
:1028300018309B0003F00C0319439DF81C301B015A
:1028400003F07003A81C1943C0B2FFF78BFFE81C0C
:10285000C7F30721C0B2FFF785FF281DF9B2C0B248
:10286000FFF780FF211321F00F0149B2C6F30343A4
:102870001943681DC9B2C0B2FFF774FFA81DC6F3A3
:102880000721C0B2FFF76EFFE81DF1B2C0B2FFF73B
:1028900069FFF8BD10B582B00C684A688B68D20138
:1028A00092FBF3FC0CEBC411A1F5007103FB1C229D
:1028B00058B91A20002401940094FFF7A8FFA02122
:1028C000B120FFF74FFF02B010BD2220F2E72DE943
:1028D000F04182B004460E4615469C461F68D3F868
:1028E00004809B68042F12D04FEAC81292FBF3F0C9
:1028F00000EBC711A1F5007103FB10224FF0000E91
:10290000012C0AD0022C0AD044BB2A2008E0012363
:10291000002211464FF0030EF2E7322000E03A2089
:102920009CF80CC0CDF804C0CDF800E0FFF76FFFB5
:1029300045F00C01012E13D0B8F1000F01D0042F87
:1029400001D141F04001012C0DD0022C0FD014B95F
:102950001020FFF707FF02B0BDE8F0810020DFE79D
:1029600045F02C01E8E71120FFF7FCFEF3E7122009
:10297000FFF7F8FEEFE7000070B584B005460E469D
:102980004FF0FF330122174C2178174800F0E4FE86
:102990000028F5D105F0F0032D01EDB2334343F0EB
:1029A0000C028DF80C2043F008038DF80D3045EA39
:1029B000060141F00C038DF80E3041F008018DF84E
:1029C0000F104FF0FF330093042303AA2178064829
:1029D00000F0B8FB0446052001F0F8F9204604B0E9
:1029E00070BD00BF5C0000206407002008B5002116
:1029F000FFF7C2FF08BD08B50121FFF7BDFF08BD05
:102A000008B50120FFF7F2FF08BD08B5002903DB78
:102A10000F2902DD0F2100E0002128B9A1F180007B
:102A2000C0B2FFF7E3FF08BDA1F14000C0B2FFF75D
:102A3000DDFFF8E708B518B10E20FFF7D7FF08BD96
:102A40000C20FFF7D3FFFAE738B54FF0FF3303222E
:102A50007E21184800F080FE10B9174B7E221A70B4
:102A60003020FFF7C3FF0220FFF7C0FF0020FFF771
:102A7000E1FFFFF7C5FF002510E00020FFF7BBFFD7
:102A80000134E4B2072C07D8C4F107039D42F4DBFC
:102A90001F20FFF7B0FFF3E70135EDB2072D08D88F
:102AA000E800C0B2403000F0F800FFF79FFF0024BC
:102AB000E8E738BD640700205C00002010B504463C
:102AC00002E0FFF798FF013420780028F9D110BD0B
:102AD00003685A6912F4806F01D1002070476FF4C7
:102AE00080625A610423036400230363202280F878
:102AF0003D2080F83C30012070472DE9F041074629
:102B00000D4690461E4620E02EB101F059F9069B75
:102B1000C01AB04219D900233B63202287F83D2018
:102B200087F83E3087F83C3003201EE03B689C6904
:102B300025EA040C1FFA8CFCBCFA8CFC4FEA5C1CE6
:102B4000E04511D1B6F1FF3FDED1C5F30743012BBC
:102B5000ECD13B685B6925EA030C1FFA8CFCBCFADC
:102B60008CFC4FEA5C1CEBE70020BDE8F0812DE90E
:102B7000F04105460E461746984633E01A6842F47F
:102B800000721A602B686FF480625A6104232B6410
:102B900000232B63202285F83D2085F83C3001205E
:102BA0002EE02FB101F00CF9A0EB0800B84219D9C2
:102BB00000232B63202285F83D2085F83C3003203C
:102BC0001EE02B689C6926EA0404A4B2003C18BFEE
:102BD0000124A4B12B685A6912F4806FCED1B7F1E9
:102BE000FF3FDED1C6F30743012BEAD12B685C69B6
:102BF00026EA0404A4B2003C18BF0124E9E700203F
:102C0000BDE8F081F0B583B004460D4616461F4678
:102C1000C36A042B0DD0012B0BD013F5803F08D0D5
:102C2000036B122B0AD10268136843F4807313609C
:102C300004E02268136843F48073136000973346FE
:102C400000224FF001112046FFF757FF70BB2369A8
:102C5000B3F5804F0FD1236805F0FE051D613B469B
:102C6000324614492046FFF782FF00B3236C042B41
:102C70001AD003201BE0EB11226803F0060343F097
:102C8000F00313613B4632460B492046FFF76FFFC6
:102C900030B1236C042B01D0032008E0012006E0B2
:102CA0002368EDB21D61DAE7012000E0032003B0E4
:102CB000F0BD00BF020001000800010070B504462D
:102CC0000D46164623685B6913F0800F19D1204624
:102CD000FFF7FEFEB8B9B5F1FF3FF3D025B101F023
:102CE0006FF8801BA842EDD9236C43F020032364C6
:102CF00000232363202284F83D2084F83C30032005
:102D000000E0002070BD0120FCE700002DE9F04349
:102D100085B004460D46914698460C9E0D9F03686B
:102D2000196841F4807119600097334600224FF012
:102D30000111FFF7E2FE00284ED1236805F0FE05E1
:102D40001D613B46324626492046FFF710FF30B151
:102D5000236C042B01D003203FE001203DE0002341
:102D6000039323685A6903929B690393039B3A4632
:102D700031462046FFF7A2FF58B1236C042B01D047
:102D800003202AE02268136843F4007313600120D3
:102D900023E0B8F1010F04D123685FFA89F61E61C0
:102DA0001BE023684FEA19221A613A463146204651
:102DB000FFF784FF58B1236C042B01D003200CE0F3
:102DC0002268136843F400731360012005E0236850
:102DD0005FFA89F61E6100E0032005B0BDE8F083CC
:102DE000020001002DE9F04784B004460D46164666
:102DF0009946DDF830800D9F0268136843F48063C4
:102E000013600368196841F48071196000974346A4
:102E100000224FF00111FFF770FE00287ED15FFA0B
:102E200085FA236805F0FE051D613B4642463E4992
:102E30002046FFF79CFE30B1236C042B01D0032009
:102E40006DE001206BE00023039323685A6903922D
:102E50009B690393039B3A4641462046FFF72EFFAA
:102E600058B1236C042B01D0032058E0226813686A
:102E700043F400731360012051E0B9F1010F0DD14B
:102E80002368F6B21E613A4641462046FFF716FF18
:102E900020B3236C042B1AD0032040E02368320AAD
:102EA0001A613A4641462046FFF708FF58B1236CA5
:102EB000042B01D0032032E02268136843F400732E
:102EC000136001202BE02368F6B21E61DBE7226865
:102ED000136843F400731360012020E02268136834
:102EE00043F4807313600097434600224FF00111B2
:102EF0002046FFF702FEA8B922684AF001031361D9
:102F00003B46424608492046FFF731FE38B1236C64
:102F1000042B01D0032002E0012000E0032004B0D4
:102F2000BDE8F0870320FAE70200010070B504460F
:102F30000D46164623685B6913F0040F19D120462D
:102F4000FFF7C6FDB8B9B5F1FF3FF3D025B100F0EA
:102F500037FF801BA842EDD9236C43F02003236484
:102F600000232363202284F83D2084F83C30032092
:102F700000E0002070BD0120FCE770B505460C465E
:102F800016462B68596911F0400F22D1596911F08A
:102F9000100F11D124B100F013FF801BA042F0D913
:102FA0002B6C43F020032B64202385F83D30002355
:102FB00085F83C30032070BD6FF010025A61002389
:102FC0002B642B63202285F83D2085F83C300120BE
:102FD000F1E70020EFE70000002800F0A58010B521
:102FE000044690F83D30002B50D0242384F83D3027
:102FF0002268136823F00103136001F00DFA626880
:103000004B4B9A4247D84B4B98428CBF002301232D
:10301000002B40F08B80484BA3FB00239B0C2268C5
:1030200053606168424A91423BD80133226813627F
:1030300062683F4B9A423ED8431E5200B3FBF2F304
:10304000013340F6FC7213426AD0C3F30B032268CB
:10305000D361E369216A22680B4313602369E16845
:1030600022680B4393606369A16922680B43D360B4
:103070002268136843F001031360002020642023BA
:1030800084F83D30206384F83E0010BD80F83C3069
:10309000FFF7FEF9A9E7294B98428CBF00230123D3
:1030A000B6E74FF4967202FB03F3254AA2FB032313
:1030B0009B090133BAE7A168B9B9431E02EB420C80
:1030C000B3FBFCF30133C3F30B03B3FA83F35B09E4
:1030D00043BBC1B9431E02EB4202B3FBF2F301331F
:1030E000C3F30B0343F40043B1E7431E02EB820C2E
:1030F0000CEB8C0CB3FBFCF30133C3F30B03B3FAFF
:1031000083F35B09E4E7431E02EB820202EB8202D7
:10311000B3FBF2F30133C3F30B0343F4404396E7ED
:10312000042394E7012392E7012070470120ACE7D4
:10313000A08601007F841E0083DE1B43FF083D0044
:10314000D34D62102DE9F04385B004460F469046FA
:1031500099460C9E00F034FE94F83D10202904D0CE
:103160000227384605B0BDE8F083054600901923D4
:10317000012255492046FFF7C0FC002840F0A080FE
:1031800094F83C30012B00F09D80012384F83C3002
:1031900023681A6812F0010F03D11A6842F0010285
:1031A0001A602268136823F400631360212384F8F3
:1031B0003D30102384F83E3000232364C4F824807B
:1031C000A4F82A90A3F58033E362638D23852B4610
:1031D000324639462046FFF715FD074660B1236C9D
:1031E000042B04D0002384F83C300327B9E70023E4
:1031F00084F83C300127B4E70023039323685A691D
:1032000003929B690393039B12E0236C042B01D070
:103210000327A6E72268136843F4007313600127AD
:103220009FE72A4631462046FFF780FE00282DD131
:10323000238D002B36D02A4631462046FFF73EFD2F
:103240000028E2D1636A5A1C626222681B7813610B
:10325000618D89B2013989B26185238D013B9BB2B1
:1032600023852268516911F0040FDAD0002BD8D0E1
:10327000636A591C61621B781361638D9BB2013BC9
:103280009BB26385238D013B2385CAE7236C042B06
:1032900001D0032765E72268136843F400731360C5
:1032A00001275EE72268136843F40073136020234C
:1032B00084F83D30002384F83E3084F83C3050E7F9
:1032C00002274EE702274CE7020010002DE9F043E9
:1032D00083B004460F46904699460C9E00F070FD60
:1032E00094F83D20202A03D0022003B0BDE8F083EB
:1032F000054600901923012250492046FFF7FDFBA7
:10330000002840F0978094F83C30012B00F0948026
:10331000012384F83C3023681A6812F0010F03D1AE
:103320001A6842F001021A602268136823F40063ED
:103330001360212384F83D30402384F83E3000237D
:1033400023640A9B6362BDF82C3063853C4BE362C7
:10335000638D2385019500964B46424639462046AB
:10336000FFF7D4FCC0B1236C042B04D0002384F8F5
:103370003C300320B9E7002384F83C300120B4E757
:10338000236C042B01D00320AFE72268136843F4B9
:10339000007313600120A8E7238D002B2AD02A4652
:1033A00031462046FFF78AFC0028E9D1636A5A1C9F
:1033B000626222681B781361218D013989B22185EF
:1033C000638D9BB2013B9BB2638523685A6912F0FF
:1033D000040FE1D00029DFD0626A511C61621278CB
:1033E0001A61238D013B2385638D9BB2013B9BB208
:1033F0006385D1E72A4631462046FFF797FD58B14D
:10340000236C042B01D003206FE72268136843F478
:1034100000731360012068E72268136843F40073A7
:103420001360202384F83D30002384F83E3084F874
:103430003C305AE7022058E7022056E7020010000D
:103440000000FFFF2DE9F04387B004460F46904689
:103450009946109E00F0B4FC94F83D20202A04D038
:103460000227384607B0BDE8F083054600901923CF
:10347000012295492046FFF740FB002840F061817A
:1034800094F83C30012B00F05E81012384F83C303D
:1034900023681A6812F0010F03D11A6842F0010282
:1034A0001A602268136823F400631360222384F8EF
:1034B0003D30402384F83E30002323640E9B63623A
:1034C000BDF83C306385814BE362638D23850195B4
:1034D00000964B46424639462046FFF783FC074696
:1034E00060B1236C042B04D0002384F83C30032704
:1034F000B7E7002384F83C300127B2E7238D5BB99E
:10350000029323685A6902929A690292029A1A688F
:1035100042F400721A6082E0012B0FD0022B21D0FE
:103520002268136843F480631360002305932368C3
:103530005A6905929B690593059B70E022681368A0
:1035400023F48063136072B60023039323685A69DF
:1035500003929A690392039A1A6842F400721A60FD
:1035600062B65CE02268136843F40063136072B6CD
:103570000023049323685A6904929A690492049A76
:103580001A6822F480621A6062B648E02A46314620
:103590002046FFF7F2FC70B923681A69636A591C68
:1035A00061621A70238D013B2385638D9BB2013BC1
:1035B0009BB2638533E0236C202B01D0012750E7B9
:1035C00003274EE700953346002241492046FFF786
:1035D00094FA002840F0B98072B62268136843F468
:1035E0000073136023681A69636A591C61621A7058
:1035F000238D013B2385638D9BB2013B9BB2638589
:1036000062B623681A69636A591C61621A70238D55
:10361000013B2385638D9BB2013B9BB26385238D68
:10362000002B00F08580032B54D8012BAED0022B49
:10363000C8D000953346002225492046FFF75DFAA1
:10364000002840F084802268136823F480631360AC
:1036500072B623681A69636A591C61621A70238DF5
:10366000013B2385638D9BB2013B9BB26385009533
:103670003346002216492046FFF73FFA002868D15A
:103680002268136843F40073136023681A69636A3D
:10369000591C61621A70238D013B2385638D9BB297
:1036A000013B9BB2638562B623681A69636A591C41
:1036B00061621A70238D013B2385638D9BB2013BB0
:1036C0009BB26385ABE700BF020010000000FFFF64
:1036D000040001002A4631462046FFF74EFC00BB9D
:1036E00023681A69636A591C61621A70238D013B51
:1036F0002385638D9BB2013B9BB2638523685A6926
:1037000012F0040F8BD01A69636A591C61621A7037
:10371000238D013B2385638D9BB2013B9BB2638567
:103720007DE7236C202B01D001279AE6032798E63A
:10373000202384F83D30002384F83E3084F83C3068
:103740008FE602278DE602278BE6032789E603270B
:1037500087E6032785E600BF2DE9F04385B00446E0
:10376000884691461D4600F02BFB94F83D30202BF7
:1037700003D0022005B0BDE8F0830646009019236F
:10378000012255492046FFF7B8F9002840F09A80F9
:1037900094F83C30012B00F09780012384F83C30F2
:1037A00023681A6812F0010F03D11A6842F001026F
:1037B0001A602268136823F400631360242384F8DA
:1037C0003D3000232364A3F58033E362012735E015
:1037D000A02384F83D3022685369C3F34003526943
:1037E000C2F3802294F83D10C9B253B94AB9A02956
:1037F00007D0002DECD000F0E3FA801BA842EAD9F4
:10380000E6E7202384F83D3023685A6912F0020F5E
:1038100035D11A6842F400721A6023686FF480622E
:103820005A610096192301222B492046FFF765F9BA
:1038300000284FD17B1C4F453CD21F46226813689D
:1038400043F48073136000962B4600224FF0011161
:103850002046FFF752F9002838D1236808F0FE020D
:103860001A6100F0ADFA064622685369C3F34003BB
:103870005269C2F3802294F83D10C9B2B5E71A68C4
:1038800042F400721A600023039323685A6903927A
:103890009B690393039B0096192301220E4920463E
:1038A000FFF72BF9A0B9202384F83D30002384F8DA
:1038B0003C305FE7202384F83D30002384F83C301F
:1038C000012057E7022055E7022053E7032051E784
:1038D00003204FE703204DE70200100030B4036AD5
:1038E00023F001030362026A4568836923F07303CE
:1038F0000C681C4322F002028B6813430B4A90426F
:1039000006D0456084614A684263036230BC7047F8
:1039100023F00803CA681A4322F0040325F4407513
:103920004A692A438D691543EBE700BF002C01402B
:1039300030B4036A23F480730362036A4468C26983
:1039400022F073020D68154323F400738A6843EA7A
:1039500002230D4A904206D04460C5614A68C263A2
:10396000036230BC704723F40063CA6843EA022351
:1039700023F4806324F440544A6944EA02148A69B7
:1039800044EA0214E8E700BF002C014030B4036AA7
:1039900023F480530362036A4468C26922F4E64256
:1039A0000D6842EA052223F400538D6843EA05338B
:1039B000074DA84206D04460C2614A6802640362AF
:1039C00030BC704724F480444D6944EA8514F2E722
:1039D000002C014003681B4A90420AD0B0F1804F8E
:1039E00007D0A2F59432904203D002F58062904253
:1039F00003D123F070034A681343124A90420AD05D
:103A0000B0F1804F07D0A2F59432904203D002F576
:103A10008062904203D123F44073CA68134323F0B9
:103A200080034A691A4302608B68C3620B68836231
:103A3000044B984202D00123436170470B69036332
:103A4000F9E700BF002C0140B0B110B5044690F872
:103A50003D3063B1022384F83D30214651F8040B18
:103A6000FFF7B8FF012384F83D30002010BD80F837
:103A70003C30FEF7B1FDEDE70120704700284AD049
:103A800070B50C46054690F83D30002B3ED0022321
:103A900085F83D302A68936823F007039360294630
:103AA00051F8040BFFF796FF29688B688A690E6A44
:103AB0002068184322F4407222F00302A368D4F86D
:103AC00018C043EA0C23134323F47C4323F0FC0384
:103AD000E268D4F81CC042EA0C221A43236A1B0392
:103AE000D4F810C043EA0C13134326F0AA06626808
:103AF000646942EA04123243886029688B612B684A
:103B00001A62012385F83D30002070BD80F83C30FA
:103B1000FEF7F0FCBBE701207047000030B4036AF9
:103B200023F010030362036A4468826922F4E642C8
:103B30000D6842EA052223F020038D6843EA05134D
:103B40000C4DA84206D0446082614A6882630362D9
:103B500030BC704723F08003CD6843EA051323F09F
:103B6000400324F440644D6944EA85048D6944EAC5
:103B70008504E8E7002C014038B590F83C30012B73
:103B800066D004460D46012380F83C30022380F8BD
:103B90003D300C2A1AD8DFE802F00719191920194C
:103BA00019193419191947000068FFF797FE2268A0
:103BB000936943F0080393612268936923F0040337
:103BC00093612268936929690B439361012384F807
:103BD0003D30002084F83C0038BD0068FFF79EFFB0
:103BE0002268936943F4006393612268936923F424
:103BF0008063936122689369296943EA0123936191
:103C0000E4E70068FFF794FE2268D36943F00803F5
:103C1000D3612268D36923F00403D3612268D36996
:103C200029690B43D361D1E70068FFF7AFFE226833
:103C3000D36943F40063D3612268D36923F48063BA
:103C4000D3612268D369296943EA0123D361BDE7BF
:103C50000220C1E74FF0010C0CFA01FC036A23EAD1
:103C60000C030362036A8A40134303627047000037
:103C700010B5044601220068FFF7ECFF2368074AED
:103C8000934206D02268136843F0010313600020BA
:103C900010BD5A6C42F400425A64F3E7002C014014
:103CA00010B5044661B1042916D001220021006834
:103CB000FFF7D0FF012204212068FFF7CBFF04E0CB
:103CC000012200210068FFF7C5FF2268136843F056
:103CD00001031360002010BD012204210068FFF7DA
:103CE000B9FFF2E790F83C20012A22D030B4034615
:103CF000012083F83C00022283F83D201C686268A2
:103D000022F0700262601C6862680D682A4362607B
:103D10001C68A26822F08002A2601C68A268496840
:103D20000A43A26083F83D00002083F83C0030BCC9
:103D3000704702207047000010B504460E4B1A78F9
:103D40004FF47A73B3FBF2F30C4A1068B0FBF3F054
:103D500000F0FEFD68B90F2C01D901200AE0002215
:103D600021464FF0FF3000F0E3FD054B1C600020C2
:103D700000E0012010BD00BF5D00002058000020C1
:103D80006000002008B5074A136843F01003136071
:103D9000032000F0BBFD0020FFF7CEFFFEF726FB5F
:103DA000002008BD00200240034A1168034B1B7825
:103DB0000B441360704700BFEC0700205D0000203B
:103DC000014B1868704700BFEC07002038B5044667
:103DD000FFF7F6FF0546B4F1FF3F02D0044B1B7816
:103DE0001C44FFF7EDFF401BA042FAD338BD00BFD3
:103DF0005D00002082B0084B1B68084AA2FB032329
:103E00005B0A00FB03F3019300BF019B5A1E019262
:103E1000002BF9D102B0704758000020D34D62103A
:103E200070B582B00446036813F0010F2CD09A4B92
:103E30005B6803F00C03042B1DD0974B5B6803F009
:103E40000C03082B12D06368B3F5803F41D0002BE0
:103E500055D103F1804303F504331A6822F480320C
:103E60001A601A6822F480221A6037E08A4B5B6875
:103E700013F4803FE7D0884B1B6813F4003F03D056
:103E80006368002B00F0AE81236813F0020F75D039
:103E9000814B5B6813F00C0F5FD07F4B5B6803F0C6
:103EA0000C03082B54D02369002B00F08A807B4B35
:103EB00001221A60FFF784FF0546774B1B6813F059
:103EC000020F75D1FFF77CFF401B0228F5D90320B4
:103ED0008DE1714A136843F480331360636843B320
:103EE000FFF76EFF05466C4B1B6813F4003FCBD108
:103EF000FFF766FF401B6428F5D9032077E1B3F58F
:103F0000A02F09D0644B1A6822F480321A601A6814
:103F100022F480221A60E1E703F18043A3F53C33E9
:103F20001A6842F480221A601A6842F480321A60D9
:103F3000D4E7FFF745FF0546574B1B6813F4003FD6
:103F4000A2D0FFF73DFF401B6428F5D903204EE1C6
:103F5000514B5B6813F4803FA5D14F4B1B6813F0A6
:103F6000020F03D02369012B40F03E814A4A1368B7
:103F700023F0F803616943EAC1031360236813F077
:103F8000080F33D0A369002B5CD0444B0122C3F847
:103F90008024FFF715FF05463F4B5B6A13F0020FC5
:103FA00021D1FFF70DFF401B0228F5D903201EE1A8
:103FB000394A136823F0F803616943EAC1031360C7
:103FC000DCE7364B00221A60FFF7FAFE0546324B5B
:103FD0001B6813F0020FD1D0FFF7F2FE401B02283E
:103FE000F5D9032003E10120FFF704FF236813F054
:103FF000040F00F09780284BDB6913F0805F34D109
:10400000254BDA6942F08052DA61DB6903F08053B4
:104010000193019B0125224B1B6813F4807F26D05E
:10402000E368012B3ED0002B54D103F1804303F50C
:1040300004331A6A22F001021A621A6A22F0040298
:104040001A6234E0154B0022C3F88024FFF7B8FE53
:104050000546114B5B6A13F0020FC7D0FFF7B0FEA5
:10406000401B0228F5D90320C1E00025D3E70C4A04
:10407000136843F480731360FFF7A2FE0646084BF3
:104080001B6813F4807FCBD1FFF79AFE801B642856
:10409000F5D90320ABE000BF00100240000042420F
:1040A00000700040544A136A43F001031362E3684E
:1040B00033B3FFF785FE06464F4B1B6A13F0020F22
:1040C0002FD1FFF77DFE801B41F288339842F3D950
:1040D00003208CE0052B09D0474B1A6A22F001021D
:1040E0001A621A6A22F004021A62E0E7424B1A6A64
:1040F00042F004021A621A6A42F001021A62D6E71A
:10410000FFF75EFE06463C4B1B6A13F0020F08D019
:10411000FFF756FE801B41F288339842F3D9032003
:1041200065E0E5B9E369002B60D0334A526802F0DC
:104130000C02082A5DD0022B17D0304B00221A66E1
:10414000FFF73EFE04462C4B1B6813F0007F47D060
:10415000FFF736FE001B0228F5D9032047E0264A68
:10416000D36923F08053D361DCE7244B00221A6625
:10417000FFF726FE0546204B1B6813F0007F06D094
:10418000FFF71EFE401B0228F5D903202FE0236A0B
:10419000B3F5803F1AD018494B6823F47413226A90
:1041A000606A024313434B60144B01221A66FFF707
:1041B00007FE0446104B1B6813F0007F0ED1FFF77B
:1041C000FFFD001B0228F5D9032010E00A4A5368BE
:1041D00023F40033A1680B435360DCE7002006E0C2
:1041E000002004E0012002E0012000E0002002B0F5
:1041F00070BD0120FBE700BF0010024000004242FA
:1042000086B0174B0FCB0DF1180C0CE90F0040F2E4
:104210000123ADF80430134B5B6803F00C02082A4D
:1042200002D0114806B07047C3F3834218326A4483
:1042300012F8100C13F4803F0DD00A4B5B68C3F3E7
:10424000404318336B4413F8143C074A02FB00F058
:10425000B0FBF3F0E6E7054B03FB00F0E2E700BF3D
:10426000287E00080010024000127A0000093D007C
:1042700070B504460D46614B1B6803F007038B4283
:104280000BD25E4A136823F007030B4313601368D5
:1042900003F007038B4240F0AB80236813F0020F5A
:1042A00017D013F0040F04D0554A536843F4E06369
:1042B0005360236813F0080F04D0514A536843F445
:1042C000605353604E4A536823F0F003A1680B43D8
:1042D0005360236813F0010F52D06368012B23D081
:1042E000022B28D0464A126812F0020F00F082809A
:1042F00043494A6822F0030213434B60FFF760FD15
:1043000006466368012B1DD0022B2AD03C4B5B680C
:1043100013F00C0F34D0FFF753FD831B41F28832AA
:104320009342F3D9032062E0354A126812F4003F49
:10433000DED101205BE0324A126812F0007FD7D153
:10434000012054E02E4B5B6803F00C03042B17D0C4
:10435000FFF736FD831B41F288329342F2D90320E6
:1043600045E0274B5B6803F00C03082B08D0FFF7F0
:1043700027FD801B41F288339842F2D9032036E0B2
:104380001E4B1B6803F00703AB420AD91B4A136894
:1043900023F007032B431360136803F00703AB42BA
:1043A0002AD1236813F0040F06D0154A536823F46A
:1043B000E063E1680B435360236813F0080F07D0F4
:1043C0000F4A536823F46053216943EAC1035360E1
:1043D000FFF716FF0A4B5B68C3F30313094AD35C6C
:1043E000D840094B18600020FFF7A6FC002070BDE4
:1043F0000120FCE70120FAE70120F8E70020024055
:1044000000100240447E000858000020014B18684C
:10441000704700BF5800002008B5FFF7F7FF044BB6
:104420005B68C3F30223034AD35CD84008BD00BFD6
:10443000001002403C7E000808B5FFF7E7FF044B80
:104440005B68C3F3C223034AD35CD84008BD00BFF6
:10445000001002403C7E000870B582B0044603683C
:1044600013F0010F36D03F4BDB6913F0805F4AD168
:104470003C4BDA6942F08052DA61DB6903F0805329
:104480000193019B0125384B1B6813F4807F3CD0BE
:10449000344B1B6A13F4407313D0626802F4407209
:1044A0009A420ED02F4A136A23F440702F490126F6
:1044B000C1F840640026C1F84064106213F0010F97
:1044C00037D1284A136A23F4407361680B4313629F
:1044D000002D3FD1236813F0020F06D0214A536804
:1044E00023F44043A1680B435360236813F0100F7B
:1044F00035D01C4A536823F48003E1680B435360B2
:10450000002002B070BD0025BDE7174A136843F4D0
:1045100080731360FFF754FC0646134B1B6813F4BB
:10452000807FB5D1FFF74CFC801B6428F5D90320B0
:10453000E7E7FFF745FC06460A4B1B6A13F0020F3C
:10454000BFD1FFF73DFC801B41F288339842F3D97D
:104550000320D6E7D36923F08053D361BAE7002064
:10456000CFE700BF00100240007000400000424250
:1045700000B587B084463A4B0FCB0DF1180E0EE90B
:104580000F0040F20123ADF80430BCF1020F53D00C
:10459000BCF1100F04D0BCF1010F2CD0002055E06D
:1045A000304B5A68186810F080704FD0C2F38343C4
:1045B00018336B4413F8100C12F4803F17D0294BBA
:1045C0005B68C3F3404318336B4413F8142C264B39
:1045D000B3FBF2F303FB00F0224B5B6813F4800F94
:1045E00034D14000214BA3FB003040082EE0204B8B
:1045F00003FB00F0F0E71B4B1B6A40F202321A404B
:10460000B2F5817F25D003F44073B3F5007F04D069
:10461000B3F5407F09D0002018E0124A526A12F028
:10462000020FF5D049F6404010E00E4B1B6813F422
:10463000003F11D1002009E0FFF7FEFE094B5B6847
:10464000C3F3813301335B00B0FBF3F007B05DF8D7
:1046500004FB4FF40040F9E74FF22440F6E700BFB7
:10466000287E00080010024000127A00ABAAAAAA15
:1046700000093D0070B582B00024A4469EE07C4D48
:10468000AA4214D00CD8A5F58015AA420FD005F582
:104690007025AA420BD0A5F58015AA421FD106E0CD
:1046A000744DAA4203D005F58035AA4217D18A6815
:1046B000A2B1012A0DD04361082410E0CC680EE0BD
:1046C000CC6804340BE0CC68083408E0CC680C34C7
:1046D00005E00361082402E0002400E00424BEF1A8
:1046E000FF0F37D806464FEA8C0233680F259540F6
:1046F00023EA050304FA02F2134333604B6813F014
:10470000805F59D05C4B9A6942F001029A619B69C3
:1047100003F001030193019B4FEA9C02951C574B48
:1047200053F825600CF00305AD000F23AB4026EADB
:104730000306534B984214D003F58063984279D016
:1047400003F58063984277D003F58063984206D0E2
:10475000042307E0061DACF108029200C5E703231D
:1047600000E00023AB4033430232444D45F8223091
:104770004B6813F4803F61D0424A136843EA0E034A
:1047800013604B6813F4003F5ED03E4A536843EA1F
:104790000E0353604B6813F4801F5BD0394A936853
:1047A00043EA0E0393604B6813F4001F58D0354A58
:1047B000D36843EA0E03D3600CF1010CBCF10F0F78
:1047C00054D8012303FA0CF30A6802EA030E33EA11
:1047D0000202F1D14A68122A3FF651AF122A3FF67F
:1047E0007EAF01A555F822F0AF460008BD4600088F
:1047F000C7460008D9460008DF460008DF46000823
:10480000DF460008DF460008DF460008DF460008F4
:10481000DF460008DF460008DF460008DF460008E4
:10482000DF460008DF460008DF460008C1460008F2
:10483000CD460008012395E7022393E7114A136848
:1048400023EA0E0313609CE70E4A536823EA0E0323
:1048500053609FE70B4A936823EA0E039360A2E735
:10486000084AD36823EA0E03D360A5E702B070BDFF
:104870000000221000003110001002400000014032
:1048800000080140000401408368194201D0012062
:104890007047002070470AB1016170470904016147
:1048A00070470000002808DB0901C9B200F1604030
:1048B00000F5614080F80013704700F00F00090117
:1048C000C9B2014B1954704714ED00E000B500F077
:1048D0000700C0F1070CBCF1040F28BF4FF0040C17
:1048E000031D062B0FD9C31E4FF0FF3E0EFA0CF02E
:1048F00021EA000199400EFA03FE22EA0E0241EA83
:1049000002005DF804FB0023EEE70000074AD368CD
:1049100023F4E0631B041B0C000200F4E06003437B
:1049200043F0BF6343F40033D360704700ED00E011
:1049300010B50446054BD868C0F30220FFF7C6FF48
:1049400001462046FFF7AEFF10BD00BF00ED00E0BE
:104950000138B0F1807F0BD24FF0E0235861054A57
:10496000F02182F823100020986107221A61704715
:104970000120704700ED00E0F0B583B005460C461D
:1049800000230193FFF71CFA2B689A6812F4807FCA
:1049900023D107465A6812F4807F03D1DB6A13F4EF
:1049A000700F24D04B4B1E680220FFF7E1FDB6FBD1
:1049B000F0F62B681969484A11422FD1D96802F1E3
:1049C0005C4211422AD11969444A114239D1DA684C
:1049D000434B1A4237D029233AE0AB6A43F0200315
:1049E000AB62002385F82430012003B0F0BD2B68B2
:1049F0001B6813F0020F48D1B4F1FF3FF7D024B188
:104A0000FFF7DEF9C01BA042F1D9AB6A43F0040303
:104A1000AB62002385F824300320E6E719692F4AAA
:104A2000114204D1D96802F16E4211420DD01969C8
:104A30002C4A0A405AB9DA682A4B13405BB1FC236E
:104A400006E0292304E0142302E0542300E0FC23C1
:104A500003FB06F604E05423FAE7019B01330193BC
:104A6000019BB34211D2B4F1FF3FF6D024B1FFF75E
:104A7000A7F9C31BA342F0D9AB6A43F00403AB62AE
:104A8000002385F824300320AFE72B686FF0120273
:104A90001A60AB6A43F40073AB622B689B6803F443
:104AA0006023B3F5602F01D000209EE7EB686BB95F
:104AB000AB6A23F48073AB62AB6A13F4805F07D1F7
:104AC000AB6A43F00103AB6200208EE700208CE765
:104AD00000208AE758000020244992249224491299
:104AE00092244900499224000368D86C7047000062
:104AF00030B482B00022019290F82420012A00F004
:104B00008F800346012280F824204A68062A2DD887
:104B10000468606B02EB8202053A4FF01F0C0CFA3E
:104B200002FC20EA0C000D6805FA02F202436263FF
:104B30000A68092A38D91C68E06802EB42021E3A6A
:104B40004FF0070C0CFA02FC20EA0C008D6805FA05
:104B500002F20243E2600A68103A012A34D90020C6
:104B6000002283F8242002B030BC70470C2A0DD8F4
:104B70000568286B02EB8202233A1F24944020EA46
:104B800004000C68944020432863D1E70568E86A74
:104B900002EB8202413A1F24944020EA04000C6890
:104BA00094402043E862C3E71C68206902EB42029C
:104BB0004FF0070C0CFA02FC20EA0C008D6805FA95
:104BC00002F202432261C6E71A681648824205D003
:104BD0009A6A42F020029A620120C1E7906810F4BC
:104BE000000F1BD1906840F4000090600A68102A02
:104BF00001D00020B4E70C4A12680C49A1FB021254
:104C0000920C02EB82025200019202E0019A013AF8
:104C10000192019A002AF9D10020A1E700209FE724
:104C20000220A0E7002401405800002083DE1B433F
:104C300030B583B00023019303689A6812F0010F26
:104C40002ED104469A6842F001029A60164B1B6806
:104C5000164AA2FB03239B0C019302E0019B013B3C
:104C60000193019B002BF9D1FFF7AAF805462368B1
:104C70009B6813F0010F11D1FFF7A2F8431B022B21
:104C8000F5D9A36A43F01003A362E36A43F001037A
:104C9000E362002384F82430012002E0002000E0D9
:104CA000002003B030BD00BF5800002083DE1B434E
:104CB00090F82430012B68D010B50446012380F809
:104CC0002430FFF7B5FF00285BD1A36A23F44073BB
:104CD00023F0010343F48073A36223682C4A9342B8
:104CE00027D0A26A22F48012A2625A6812F4806F5E
:104CF00005D0A26A22F4405242F48052A262A26A13
:104D000012F4805F2BD0E26A22F00602E2620022F7
:104D100084F824206FF002021A6023689A6802F473
:104D20006022B2F5602F1DD09A6842F480129A601A
:104D30002AE0A2F58062526812F4702FD1D0A26AE4
:104D400042F48012A262134A526812F4806FD6D0E5
:104D5000A26A22F4405242F48052A262CFE70022BB
:104D6000E262D4E70A4A934204D09A6842F4A0026D
:104D70009A6009E0A2F58062526812F4702FD3D1D4
:104D8000F3E7002384F8243010BD0220704700BFF1
:104D9000002801400024014038B503689A6812F0E9
:104DA000010F01D1002038BD04469A6822F00102AB
:104DB0009A60FFF705F8054623689B6813F0010F1A
:104DC0000ED0FEF7FDFF431B022BF5D9A36A43F07B
:104DD0001003A362E36A43F00103E3620120E2E708
:104DE0000020E0E700287BD070B50446836A002BE2
:104DF0004DD02046FFF7D0FFA36A13F0100369D10E
:104E0000002867D1A26A22F4885222F0020242F0FE
:104E10000202A2626268E1690A43E16842EA410271
:104E2000A568B5F5807F02D0012D36D01D46666994
:104E3000012E35D02668716821F4694129437160DB
:104E40002568AE68274931401143A960A168B1F5D2
:104E5000807F01D0012902D12369013B1B05256810
:104E6000E96A21F470010B43EB62236899681E4BD9
:104E70000B409A4225D0A36A23F0120343F010039B
:104E8000A362E36A43F00103E362012027E0C36207
:104E900080F82430FDF7CCFAABE74FF48075C6E715
:104EA00031B9A169013945EA413141F40065C1E7F1
:104EB000A16A41F02001A162E16A41F00101E162D1
:104EC000B8E70023E362A36A23F0030343F001037E
:104ED000A36204E0A36A43F01003A362012070BD43
:104EE00001207047FDF7E1FFFE0E1FFF002103E0E8
:104EF0000B4B5B58435004310A480B4B42189A4203
:104F0000F6D30A4A02E0002342F8043B084B9A42D7
:104F1000F9D3FDF745FA00F06DFDFDF72AFA704769
:104F2000EC810008000000202C020020300200204C
:104F300040090020FEE7002B2DE9F0471D46BBBFCE
:104F400003F100431D4600232D2388B01446B8BF4B
:104F50001446129A109E1370149BDDF84CA023F097
:104F60002008B8F1460F05D0B8F1450F00D1013641
:104F7000022300E0032307AA049206AACDE902A2B5
:104F8000CDE9003622462B4600F006FEB8F1470F69
:104F9000074619D1119BDB070ED500EB060900224D
:104FA000002320462946FBF7DFFC08B1CDF81C9012
:104FB0003022079B4B451ED33846079B159ADB1BB7
:104FC000136008B0BDE8F087B8F1460F00EB0609A2
:104FD000E5D10378302B0AD1002200232046294650
:104FE000FBF7C2FC18B9C6F10106CAF80060DAF88E
:104FF00000309944D3E7591C07911A70D9E7F7B5E7
:105000000029B6BF2D232B23494209290270437082
:1050100029DD0DF1070425460A27B1FBF7F62246E4
:1050200007FB1613303302F8013C0B46632B314665
:1050300004F1FF34F1DC3031931E04F8011C1C46EE
:10504000411CAB420AD30DF109039B1AA54238BF9C
:105050000023821C1344181A03B0F0BD13F8016B2F
:1050600001F8016FEDE7302330318370C170031D0B
:10507000F1E700002DE9F04F91B00C46DDF86880B3
:1050800016461F46054600F0DDFC036818460A93E5
:10509000FBF73EF800230E93D8F8003094F818A0E0
:1050A000073323F00703F3E80212D4F800B0CDE988
:1050B0000812C8F8003013460A46C4E91223DDE995
:1050C000088323F000490B904FF0FF3240464946D9
:1050D0009B4BFBF77BFC70BB4FF0FF3240464946D1
:1050E000974BFBF755FC30BBDDE90801002200239C
:1050F000FBF744FC10B12D2384F84330914A924BC6
:10510000BAF1470F8CBF9046984603234FF0000931
:1051100023612BF004032360334621462846009781
:105120000FAA00F0D3F9013040F08F804FF0FF302C
:1051300011B0BDE8F08FDDE9082310461946FBF7F2
:1051400045FC40B1099B814A002BBCBF2D2384F84C
:1051500043307F4BD4E763680AF0DF095A1C3ED125
:105160000623636000224BF48063236006920EAA3C
:10517000CDE904A20DAA03920DF13302CDE901326B
:10518000636828460093DDE90823FFF7D4FEB9F1F0
:10519000470F80460D9929D1C81C02DB63688B42FA
:1051A00041DAAAF1020A5FFA8AFA5246013904F199
:1051B00050000D91FFF723FF0E9A81461318012A24
:1051C000236102DC2268D20701D5013323619DF8F7
:1051D0003330002BA0D02D2384F843309CE7B9F165
:1051E000470FBFD1002BBDD10123BAE7BAF1650F3C
:1051F000DBD9BAF1660F18D1002963680BDD216194
:1052000013B92268D00702D501330B4423614FF054
:105210000009A165DBE713B92268D20701D5023383
:10522000F4E70123F2E74FF0670A0E9B8B4205DC9F
:1052300023682161D807EAD54B1CE7E70029CCBFDA
:105240000122C1F102021344E0E723685A0507D4A2
:105250002369424631462846B84701302BD165E7DD
:10526000BAF1650F40F2DC80D4E91201002200237C
:10527000FBF77AFB002833D0012331462846354A14
:10528000B84701303FF452AFDDE90D38434502DB4A
:105290002368D8070FD5DDE90A2331462846B847E9
:1052A00001303FF443AF4FF0000908F1FF3804F13B
:1052B0001A0AC84509DC23689B0700F10281E068EF
:1052C0000F9B9842B8BF184632E701235246314639
:1052D0002846B84701303FF429AF09F10109E8E752
:1052E0000D9B002B38DC012331462846194AB8476C
:1052F00001303FF41BAFDDE90D3959EA030302D158
:105300002368D907D7D5DDE90A2331462846B847AF
:1053100001303FF40BAF4FF0000A04F11A0B0D9B64
:105320005B42534501DC4B4693E701235A46314625
:105330002846B84701303FF4F9AE0AF1010AEEE71A
:10534000FFFFEF7F587E0008547E0008607E000853
:105350005C7E0008647E0008A36DDDF838A053452C
:10536000A8BF5346002B994636DC4FF0000B29EAC4
:10537000E97904F11A02A36D0893A3EB09035B45D5
:1053800031DC0D9B9A453ADC2368DA0737D40D9B54
:10539000AAEB0309089BAAEB03039945A8BF99460A
:1053A000B9F1000F33DC4FF0000829EAE97904F184
:1053B0001A0B0D9BAAEB0303A3EB090343457FF7ED
:1053C0007AAF01235A4631462846B84701303FF4A8
:1053D000ADAE08F10108ECE7424631462846B84731
:1053E0000130C2D1A2E60123314628460892B847CF
:1053F00001303FF49BAE089A0BF1010BBBE731463D
:10540000DDE90A232846B8470130C0D18EE6089A64
:105410004B46314628464244B8470130C3D185E661
:10542000DDF838A0BAF1010F01DCDB0736D5012326
:10543000424631462846B84701303FF477AEDDE9B1
:105440000A2331462846B84701303FF46FAED4E90D
:105450001201002200230AF1FF3AFBF785FAC0B9D6
:10546000534608F1010231462846B84701300CD1B5
:105470005CE601235A4631462846B84701303FF4DE
:1054800055AE08F10108D045F3DB4B4604F150025C
:10549000E0E64FF0000804F11A0BF4E7012342465E
:1054A000E1E701234A4631462846B84701303FF438
:1054B0003DAE08F10108E3680F995B1A4345F0DC43
:1054C000FDE64FF0000804F11909F4E72DE9F04773
:1054D000164698468A680B6907469342B8BF13463A
:1054E000336091F843200C46DDF820900AB1013377
:1054F00033602368990642BF3368023333602568FE
:1055000015F0060506D104F1190AE36832689B1A02
:10551000AB422BDC94F843302268003B18BF0123D8
:10552000920630D44146384604F14302C847013060
:1055300023D02368226903F00603042B14BF00253F
:1055400033684FF0000608BFE56804F11A0408BF8D
:10555000ED1A54F8123C08BF25EAE5759342C4BF22
:105560009B1AED18B5421AD1002008E001235246DB
:1055700041463846C847013003D14FF0FF30BDE8FF
:10558000F0870135C1E73020E11881F843005A1C4B
:1055900094F845102244023382F84310C2E70123F5
:1055A000224641463846C8470130E6D00136D9E7A1
:1055B0002DE9FF470F7E9146782F80460C469A468C
:1055C0000C9E01F1430207D8622F0AD8002F00F089
:1055D000D280582F00F0B78004F1420684F8427060
:1055E0003AE0A7F16303152BF6D801A151F823F097
:1055F000495600085D560008D9550008D9550008DD
:10560000D9550008D95500085D560008D95500083D
:10561000D9550008D9550008D95500085D5700082C
:105620008756000813570008D9550008D9550008B7
:105630007F570008D955000887560008D95500083B
:10564000D95500081B57000833681A1D1B683260C3
:1056500004F1420684F8423001239DE0336820685B
:10566000191D3160060601D51D6803E04506FBD50E
:10567000B3F90050002D03DA2D236D4284F8433036
:105680000A23594810E021683368080653F8045B80
:1056900002D4490648BFADB26F2F5348336059D189
:1056A0000823002184F843106668002EA66005DBFD
:1056B00021682E4321F0040121604DD01646B5FB30
:1056C000F3F103FB1157C75D06F8017D2F46BB427E
:1056D0000D46F4D9082B0BD12368DF0708D52369C1
:1056E00061689942DEBF302306F8013C06F1FF36BF
:1056F000921B22614B4621464046CDF800A003AAEA
:10570000FFF7E4FE01304CD14FF0FF3004B0BDE8AC
:10571000F087236843F0200323607827334884F818
:105720004570236831681F0651F8045B02D45F0698
:1057300048BFADB23160D90744BF43F020032360B6
:105740001DB11023ADE72848E9E7236823F02003C3
:105750002360F6E70A23A4E71646BBE7336825680B
:10576000181D616930602E061B6801D5196002E0C2
:105770006806FBD51980002316462361BAE7336813
:1057800000211A1D32601E686268304600F05EF922
:1057900008B1801B606063682361002384F8433094
:1057A000A8E73246494640462369D0470130ABD08E
:1057B00023689B0713D4E068039B9842B8BF184640
:1057C000A4E70123324649464046D04701309BD0EA
:1057D0000135E36803995B1AAB42F2DCEBE7002585
:1057E00004F11906F5E700BF667E0008777E000821
:1057F0000CB430B5184B0C1E1D689DB008DA8B2315
:105800004FF0FF302B601DB0BDE8304002B0704754
:105810004FF40273ADF814304FF000031B930CBF2C
:10582000234604F1FF33049307934FF6FF7302906E
:105830000690ADF81630284621AB209A02A90193B4
:1058400000F0F0FF431CBCBF8B232B60002CDAD090
:105850000022029B1A70D6E770000020002310B5CA
:105860000446C0E90033C0E90433836081814366A4
:10587000C2818361194608225C3000F0B3F80D4BF9
:10588000246263620C4BA3620C4BE3620C4B2363F8
:105890000C4B9C4206D003F16802944202D0D033F4
:1058A0009C4205D104F15800BDE8104000F0C6B894
:1058B00010BD00BFDD730008FF73000837740008D7
:1058C0005D740008F0070020024A0349034800F015
:1058D0006BB800BF640000206D6C000874000020ED
:1058E00041680C4B10B59942044601D001F0BEF955
:1058F000A168094B994202D0204601F0B7F9E1684E
:10590000064B994204D02046BDE8104001F0AEB9E4
:1059100010BD00BFF007002058080020C00800207C
:105920000C4B0D4A10B504211A600C480022FFF7F9
:1059300095FF0A4B01221C46092103F16800FFF77D
:105940008DFF04F1D0000222BDE810401221FFF7C4
:1059500085BF00BF28090020C9580008F0070020B3
:10596000014800F06CB800BF2D090020014800F08C
:1059700067B800BF2D09002010B50446FFF7F0FFFF
:10598000236A1BB1BDE81040FFF7F0BF044B236250
:10599000044B1B68002BF5D1FFF7C2FFF2E700BFF5
:1059A000E1580008280900202DE9F84307468846F9
:1059B00014460026D4E90195B9F1010905D52468FA
:1059C000002CF7D13046BDE8F883AB89012B07D90D
:1059D000B5F90E30013303D029463846C047064397
:1059E0006835E9E703460244934200D1704703F863
:1059F000011BF9E770B500260C4D0D4B5B1B9C108D
:105A0000A64209D1002602F06BF90A4D0A4B5B1B36
:105A10009C10A64205D170BD55F8043B984701364D
:105A2000EEE755F8043B98470136F2E7E4810008B9
:105A3000E4810008E4810008E881000870477047AD
:105A40007047000000487047B0010020034610B5C1
:105A5000C9B202449342184601D1002003E0047801
:105A600001338C42F6D110BD0A44914200F1FF335C
:105A700000D1704710B511F8014B914203F8014F66
:105A8000F9D110BD2DE9F74F03690C690746A34210
:105A90007EDB013CA30000F1140501F11408009322
:105AA00005EB8403019358F8243055F82420013382
:105AB0009A42B2FBF3F608EB84092ED34FF0000AAA
:105AC000C446AE46D3465CF8043B98B206FB00A041
:105AD0001B0C020C06FB0323DEF8002080B292B2FE
